:020000040800F2
:10000000A008002041320008290400082B04000841
:100010002D0400082F04000831040008000000002F
:100020000000000000000000000000003304000891
:1000300035040008000000003704000839040008F7
:100040005B3200085B3200085B3200085B3200085C
:100050005B3200085B3200085B3200085B3200084C
:100060005B3200085B3200085B3200085B3200083C
:100070005B3200085B3200085B3200085B3200082C
:100080005B3200085B3200085B3200085B3200081C
:100090005B3200085B3200085B3200085B3200080C
:1000A0005B3200085B3200085B3200085B320008FC
:1000B0005B3200085B3200085B3200085B320008EC
:1000C0005B3200085B3200085B3200085B320008DC
:1000D0005B320008D93100085B3200083730000875
:1000E0005B3200085B3200085B32000800F002F867
:1000F00000F042F80AA090E8000C82448344AAF180
:100100000107DA4501D100F037F8AFF2090EBAE87D
:100110000F0013F0010F18BFFB1A43F0010318473B
:100120005067000070670000103A24BF78C878C19B
:10013000FAD8520724BF30C830C144BF04680C60ED
:10014000704700000023002400250026103A28BF35
:1001500078C1FBD8520728BF30C148BF0B60704739
:10016000642903F06185782903F09A85002070479F
:100170001FB51FBD10B510BD03F0EEFF1146FFF710
:10018000F7FF00F0B1F804F00CF803B4FFF7F2FF4A
:1001900003BC02F0CBFF00009A490A885206FCD546
:1001A0009849091D0880704770B588B01B2A2BD864
:1001B0000DEB020300251D71AA258DF800508DF866
:1001C00001508DF802006C468DF80320002004E0F9
:1001D0000D5C2618401C3571C0B29042F8D3002047
:1001E000111D05E0265C1D79401C35441D71C0B20F
:1001F0008842F7D30023551D04E0E05CFFF7CCFFF5
:100200005B1CDBB2AB42F8D308B070BD70B585B0F3
:10021000060ADDE909548DF800608DF80100080A2E
:100220008DF80200100A8DF804008DF80520180AD8
:100230008DF80600280A8DF808008DF80950200A6C
:100240008DF80A0000208DF810008DF8031003903F
:100250008DF811008DF807308DF80B401222694699
:100260000220FFF7A1FF05B070BD3EB500231C467C
:100270006D46EC545B1CDBB20C2BFAD3030A8DF8F1
:1002800000308DF80100080A8DF80200100A8DF880
:1002900004008DF805208DF803108DF806408DF8C8
:1002A00007400C22294601200294FFF77DFF3EBD46
:1002B0007CB500231C466D46EC545B1CDBB2062B60
:1002C000FAD3030A8DF800308DF80100080A8DF882
:1002D0000200100A8DF804008DF803108DF8052037
:1002E000284602F085FE7CBD8CB0012600F0F6F8B1
:1002F0004FF4A06003F0E6FB02F0CCFE424802F0AF
:100300001FFF4FF4E13002F005FE00F043F900F06A
:10031000DFFA4FF4C87405E0204602F0E9FE3BA086
:1003200003F04EFC02F0E0FB0028F5D13AA003F008
:1003300047FC3B4FDFF8EC800AAA09A908A802F0A5
:1003400022FC0028F8D100F033FB03AA04A905A879
:1003500000F065FB06AA07A902A800F047FBEEB370
:10036000BDF91810BDF91C00CDE90001BDF9083038
:10037000BDF90C20BDF91010BDF91400FFF746FFC0
:1003800039460A9805F0B2F905F048F905B2394640
:10039000089805F0ABF905F041F904B2394609981F
:1003A00005F0A4F905F03AF900B22A462146FFF714
:1003B0005CFF39460A9805F099F905F02FF905B266
:1003C0003946089805F092F905F028F904B2394643
:1003D000099805F08BF905F021F900E004E000B27E
:1003E0002A462146FFF764FF412002F0E7FDD8F8D6
:1003F000B401414618B10020C1F8B4019CE70120C6
:10040000FAE700000038014020A10700696E697416
:100410005F65726F72000000696E69745F6F6B00D8
:100420000000C842000022427047FEE7FEE7FEE7F8
:10043000FEE7704770477047704700000CB5002218
:100440004C4800920192016841F4803101604FF400
:10045000A063016801F4003101910099491C0091E9
:10046000019911B900999942F3D10168890333D5F3
:100470000121019140490A6842F010020A600A68AD
:1004800022F003020A600A6842F002020A60416830
:10049000416041684160416841F480614160416868
:1004A00021F47C114160416841F4E8114160016828
:1004B00041F08071016001688901FCD5416821F03B
:1004C00003014160416841F0020141604168C1F3AC
:1004D00081010229FAD10CBD01920CBD254810B54D
:1004E000016841F0010101604168244A1140416006
:1004F0000168234A11400160016821F480210160F4
:10050000416821F4FE0141604FF41F018160FFF753
:1005100095FF1C494FF00060086010BD154A10B5EA
:100520005068194B10F00C01184803D0042901D071
:10053000082901D0036012E05168536801F470117A
:100540004FF0020413F4803F04EB914102D0536852
:100550009B0301D50E4B00E00B4B594301605168E2
:100560000A4AC1F30311121D515C0268CA400260BD
:1005700010BD000000100240002002400000FFF803
:10058000FFFFF6FE08ED00E000127A0000000020F8
:1005900000093D0038B50121102003F0B0F84FF4F8
:1005A0000050ADF8000010208DF803000320064C29
:1005B0008DF802006946204602F0B9FEA1152046DA
:1005C00002F01FFF38BD000000100140022002F0C1
:1005D00078BD38B50121042003F091F80620ADF86C
:1005E000000010208DF8030003207F4C8DF80200DE
:1005F0006946204602F09BFE0621204602F001FFDC
:1006000038BD70B57848016821F0F00101600168DB
:1006100041F030010160754C0120C4F88401C4F838
:100620008801022004F5C27402F04BFD002525600C
:10063000022002F046FD656070BD6B4810B5016890
:1006400021F0F0010160016841F030010160674C68
:100650000020C4F88801C4F88401022004F5C274A3
:1006600002F02FFD012060602060BDE810400220F4
:1006700002F027BD70B55C480024016821F0F0014C
:100680000160016841F080010160584D0126C5F804
:100690008461022002F015FDC5F88861022002F095
:1006A00010FD07E0641CE4B2FA2C03D9FFF7C5FF84
:1006B000012070BDD5F804010028F3D1C5F88801E8
:1006C00070BD70B5494C0025C4F888514648016892
:1006D00021F0F0010160016841F030010160C4F8CF
:1006E0008451022004F5C27402F0EBFC012060602A
:1006F000022002F0E6FC656070BD70B53B4C002640
:10070000C4F888613848016821F0F001016001688F
:1007100041F0300101600125C4F88451022004F544
:10072000C27402F0CEFC6560022002F0CAFC666072
:1007300070BD2DE9F04105462B48016821F0F0011C
:100740000160016841F030010160284E0027C6F8C1
:1007500088713C464FF00108E809C6F88401680634
:10076000050EC6F88881022002F0ABFCC6F888713D
:10077000022002F0A6FC641CE4B2082CECD3BDE815
:10078000F0812DE9F047814617480024016821F0E7
:10079000F0010160016841F080010160134E2546BF
:1007A00027464FF00108C6F88871022002F089FC44
:1007B000C6F888816006040ED6F8040108B1641CEE
:1007C000E4B2022002F07DFC6D1CEDB2082DEAD3EC
:1007D000B9F1000F04D0FFF774FF2046BDE8F087A1
:1007E000FFF78BFFF9E700000008014000002142FD
:1007F00070B50C460546FFF704FFD020FFF799FFC0
:10080000FFF738FF50B92846FFF793FFFFF732FF95
:100810002046FFF78EFFFFF72DFF18B1FFF70DFF02
:10082000012070BDFFF709FF002070BDBC2801D377
:10083000012110E0622801D302210CE02A2801D313
:10084000032108E0142801D3042104E00A2801D37D
:10085000052100E006211A20CAE710B504464FF42E
:100860007A70844201D9044602E0042C00D20424A8
:10087000B0FBF4F0401EC1B21920FFF7B9FF6008C9
:10088000BDE81040D2E710B50446FFF7BAFED0200D
:10089000FFF74FFFFFF7EEFE2046FFF74AFFFFF797
:1008A000E9FEFFF7AEFED120FFF743FFFFF7E2FEC0
:1008B0000020FFF766FF0446FFF7BFFE204610BD8D
:1008C000C006010E1C2093E7C006010E1B208FE717
:1008D00010B5FFF77EFE80216B20FFF789FF6420B3
:1008E00002F006FC00216B20FFF782FF0320FFF7D8
:1008F000EBFF0020FFF7E4FF3220FFF7AEFF0021FF
:100900003820FFF775FF00216A20FFF771FF0021F3
:100910002320FFF76DFF80213720FFF769FF752047
:10092000FFF7B1FF682801D0012010BD01216B2025
:10093000FFF75EFF00216C20FFF75AFF3220FFF720
:100940008CFF002010BD2DE9F0411C4615460F46D6
:100950000646FFF756FE7006000EFFF7EAFEFFF7A9
:1009600089FE20B1FFF769FE0120BDE8F08138461D
:10097000FFF7DFFEFFF77EFEFFF743FE012000EBEF
:100980004600C0B2FFF7D5FEFFF774FE08E0012D68
:100990000CD00120FFF7F5FE6D1E04F8010BEDB23F
:1009A000002DF4D1FFF749FE0020DEE70020F1E73B
:1009B00008B56B46022241216820FFF7C4FFBDF84D
:1009C000000040BA00B204F0E1F90022344B04F018
:1009D00085F8344A344B03F0D1FF03F09DFF3349CF
:1009E00004F084FE04F01AFE00B208BD7CB5144683
:1009F0000D4606466B46062243216820FFF7A3FFFB
:100A000000280BD1BDF8001049BA3180BDF80210A2
:100A100049BA2980BDF8041049BA21807CBD7CB553
:100A200014460D4606466B4606223B216820FFF71A
:100A30008AFF00280BD1BDF8001049BA3180BDF8FB
:100A4000021049BA2980BDF8041049BA21807CBD42
:100A50002DE9F0411D4616460C460746FFF7D1FD2D
:100A60007806000EFFF765FEFFF704FE60B920462A
:100A7000FFF75FFEFFF7FEFD00240BE0285DFFF7A8
:100A800058FEFFF7F7FD18B1FFF7D7FD01206CE71F
:100A9000641CE4B2B442F1D3FFF7CFFD002064E759
:100AA00000407540A4703D0AD74342400000C84250
:100AB000C8234FF48062FE4940F6F63001F068BE6C
:100AC0002DE9FF410446FBA002AB00680290FAA0AA
:100AD00000680390F9A00668F9A0056804F0030017
:100AE000195C8DF80010C4F3C1015A5C8DF8012027
:100AF000C4F381129B5C8DF8023003AB185C8DF857
:100B00000400585C8DF80500985C8DF806006A4674
:100B1000032140F2264001F0EBFD4FF0FF37E0BB30
:100B200001AA032140F22A4001F0E2FDA8BBCDE971
:100B3000006560070BD59DF8000040F001008DF8BE
:100B400000009DF8040040F001008DF80400A006AC
:100B50000BD59DF8010040F001008DF801009DF8D3
:100B6000050040F001008DF80500E0050BD59DF86B
:100B7000020040F001008DF802009DF8060040F0F0
:100B800001008DF806006A4603214FF4886001F0E9
:100B9000AFFD10B901AA032100E004E040F23140AA
:100BA00001F0A6FD18B1384604B0BDE8F081C54893
:100BB00004810020F8E7F8B5C249098901F0030271
:100BC00050F822404A0700D56442C1F3C10250F8F0
:100BD00022308A0600D55B42C1F3811250F82220F0
:100BE000C80500D55242B84984FB0140850045EA5A
:100BF000947083FB014382FB0121950F45EA810537
:100C0000010E8DF80010010C8DF80110010A8DF80D
:100C10000210A40F8DF8030044EA83046A460421FD
:100C20004FF4747001F064FD4FF0FF3688B9200E68
:100C30008DF80000200C8DF80100200A8DF80200CC
:100C40008DF803406A4604214FF4757001F050FDA1
:100C500008B13046F8BD280E8DF80000280C8DF83C
:100C60000100280A8DF802008DF803506A4604211D
:100C70004FF4767001F03CFDF8BD2DE9FF410446CC
:100C800003A801F0BBF9BDF80C00420CC3038D486A
:100C9000018901F003004D0754F8200000D54042BF
:100CA000C1F3C1058E0654F8255000D56D42C1F33D
:100CB0008116C90554F8264000D56442A0FB03679D
:100CC000C11701FB037100FB0210810041EA96701D
:100CD000A5FB0367E91701FB037105FB02118D00FA
:100CE00045EA9671A4FB0367E51705FB037304FB54
:100CF0000232930043EA9672030E8DF80030030C23
:100D00008DF80130030A8DF802308DF80300080ECB
:100D10008DF80400080C8DF80500080A8DF806000F
:100D2000100E8DF80800100C8DF80900100A8DF8CF
:100D30000A008DF807108DF80B206A460C214FF43D
:100D4000257001F0D5FC2FE730B504465FA185B0D2
:100D500007C98DE807004FF0FF35C82C16D8C8200A
:100D6000B0FBF4F1491E080A8DF80C008DF80D1047
:100D700003AA022140F2162001F0BAFC30B96A46FB
:100D80000C2140F6C12001F0B3FC10B1284605B09B
:100D900030BD4C4884810020F9E74A4989890180A7
:100DA000002070472DE9FC41054640074FF0FF3613
:100DB0007CD0B1F5C86F79D8084604F083FC464969
:100DC00004F06AFB074601A801F0BBF89DF8040097
:100DD000022806D004280DD008282ED0102865D16E
:100DE00034E00E21384604F022FE04F033FC84B2D5
:100DF0003A4907E00D21384604F019FE04F02AFCB8
:100E0000374984B2384604F071FC04F023FC210A0F
:100E10008DF8001080B28DF80140010A8DF80210A3
:100E20008DF80300E8076C4620D0224602214FF4DB
:100E3000EA7001F05DFCC8BB11E00C21384604F0FB
:100E4000F6FD04F007FC84B22649DBE70B213846A7
:100E500004F0EDFD04F0FEFB84B22349D2E7A21CAE
:100E600002214FF4927001F043FCF8B9A8070DD5A8
:100E70006A4602214FF4EC7001F03AFCB0B9A21CB2
:100E800002214FF4947001F033FC78B9680731D532
:100E90006A4602214FF4EE7001F02AFC30B9A21C20
:100EA00002214FF4967001F023FC1FE01FE00000C8
:100EB000AA5A00084CCD6C000CC92C00365676009E
:100EC000264666006C00002009E3CA02FEF2ABC4AD
:100ED000AAF1DFDFBBAFDFDF000048430000404680
:100EE0000000C045000040450000C04410B130463D
:100EF000BDE8FC810020FBE708B500218DF800105B
:100F0000C10702D030218DF80010810705D59DF86A
:100F1000001041F00C018DF80010400705D59DF838
:100F2000000040F003008DF800006A4601214FF4F4
:100F3000A47001F0DDFB08BD08B560B1042800D93C
:100F40000420401E8DF800006A46012140F24F1037
:100F500001F0CEFB08BD0120F3E70521B0FBF1F065
:100F600008B5010A8DF800108DF801006A460221CB
:100F70004FF4EF7001F0BCFB08BD0521B0FBF1F0B0
:100F800008B5010A8DF800108DF801006A460221AB
:100F90004FF4ED7001F0ACFB08BD4FF47A7290FB9A
:100FA000F2F008B54843010E8DF80010010C8DF8E1
:100FB0000110010A8DF802108DF803006A46042121
:100FC0004FF4AE7001F094FB08BD0521B0FBF1F0C9
:100FD00008B5010A8DF800108DF801006A4602215B
:100FE0004FF4AD7001F084FB08BD0521B0FBF1F0BA
:100FF00008B5010A8DF800108DF801006A4602213B
:101000004FF4AC7001F074FB08BD38B504004FF02C
:10101000FF3506D06A4604214FF4587001F090FB6A
:1010200008B1284638BD00989DF8031000BA20F09A
:10103000FF0008432060002038BD08B5010E8DF880
:101040000010010C8DF80110010A8DF802108DF8C6
:1010500003006A4604214FF4587001F049FB08BDB3
:1010600038B504004FF0FF3506D06A4604214FF42E
:10107000717001F065FB08B1284638BD009800BAD0
:1010800020F0FF019DF80300014301EB8100800087
:101090002060002038BD1421B0FBF1F008B5010E2E
:1010A0008DF80010010C8DF80110010A8DF8021066
:1010B0008DF803006A4604214FF4717001F018FBAB
:1010C00008BD08B560B120208DF8000028208DF8FB
:1010D000010030208DF8020038208DF8030004E074
:1010E000A3220421684602F0CFFE6A46042140F69E
:1010F0009E2001F0FDFA00F058FB08BD08B560B174
:10110000C0208DF80000C2208DF80100C4208DF8A9
:101110000200C6208DF8030004E08B2204216846FB
:1011200002F0B2FE6A46042140F6982001F0E0FA8F
:1011300000F03BFB08BD0EB54FF4976308B1E1A08A
:1011400000E0E3A007C88DE807006A4609211846B9
:1011500001F0CEFA0EBD3EB5044602208DF8000027
:10116000CA208DF80100E3208DF8020009208DF8D7
:1011700003006A460421682001F0BAFAA3208DF822
:101180000000610609D5C0218DF80110C8218DF835
:101190000210C2218DF8031005E08DF801008DF8D2
:1011A00002008DF8030014F4C07F09D0C4218DF82B
:1011B0000410CC218DF80510C6218DF8061005E02D
:1011C0008DF804008DF805008DF806008DF80800F4
:1011D0008DF807008DF809006A460A2140F6A7201D
:1011E00001F086FAA0074FF0D80503D020208DF833
:1011F000000001E08DF800506A46012140F6B6205B
:1012000001F076FAA00601D5012000E00020FFF7EA
:1012100092FF14F4C07F1ED0E0050AD5B2208DF8ED
:1012200000008B208DF80100B6208DF802009B2075
:1012300009E0B0208DF8000080208DF80100B42076
:101240008DF8020090208DF803006A46042140F6D4
:10125000A22001F04DFAE0074FF40B6323D0F820F1
:101260008DF800006A460121184601F041FAFA2182
:101270000720FFF797FD0720FFF73EFE0120FFF74D
:101280005BFE6420FFF769FE4FF4FA70FFF775FE0E
:10129000C8219248FFF781FE2820FFF796FE0A201A
:1012A000FFF7A3FE06E08DF800506A4601211846BC
:1012B00001F01EFAA00703D5D9208DF8000001E047
:1012C0008DF800506A46012140F23D7001F010FA9D
:1012D000600701D5012000E00020FFF70FFFE006C6
:1012E00001D5012000E00020FFF7EBFE7C4D44F02B
:1012F0000800688100F059FA0020A873600601D543
:101300000620A87314F4C07F02D0A87B801DA873A8
:1013100014F0140F02D0A87B1030A873A00702D0DD
:10132000A87B001DA87300203EBD6D49498901803E
:101330000020704700B56BA187B00EC98DE80E0084
:101340006BA10DF10C0C0EC98CE80E0040F6822347
:10135000012807D0022803D04FF0FF3007B000BDAE
:101360006A4600E003AA0B21184601F0C1F9F5E72F
:101370002DE9FF4F89B01646DDE916520024DFF84B
:1013800060810F4681462C80A24698F80E0069467F
:1013900000F02CFF4FF0FF3B18B158460DB0BDE8F0
:1013A000F08FB8F80A0010F0140F3CD0009909BA79
:1013B00021F0FF0C9DF803104CEA010CC6F800C0A8
:1013C000019909BA21F0FF039DF807100B437360E0
:1013D00002999DF80B2009BA21F0FF011143B16079
:1013E000039A9DF80F4012BA22F0FF022243F260E6
:1013F0004FEA2C4609141B1412147643494303FB8D
:10140000036302FB021119441024A1F17061B1F1D0
:10141000007F04D900F0C9F9A5F800A0BDE729882C
:1014200041F48071298041066A460ED51119A41D28
:101430000B885BBA3B804B885BBA7B80898849BA52
:10144000B980298841F00801298010F4C07F11D0AB
:101450001119A41D0B885BBAA9F800304B885BBA40
:10146000A9F80230898849BAA9F80410298841F0FE
:1014700070012980800718D01444E07800F0C0057E
:1014800000F03F016078C00707D0C80801F00701ED
:10149000D8F80020491C02B190476078000704D5B5
:1014A000D8F8041009B1A80988470C9800F025FC69
:1014B000002073E70A490860002070470849486027
:1014C00000207047B8AAB38DB4980D355D000000B8
:1014D000B8AAAAAAB088C3C5C700000009E3CA0217
:1014E0006C000020D8B1B9F38BA391B609B4D90030
:1014F000DAB1B9F38BA391B6DAB4DA00F8B5FE4CE1
:101500000023224694F82460D2E900125D1E56B1F1
:1015100090B102200DE01078C97B6B460122FFF7E5
:1015200097FA60B90DE0A67A4EB128B1607C58B93F
:1015300001208DF80000EEE78DF80030EBE728463B
:10154000F8BD9DF8000060740020F8BD38B5002497
:10155000E94D18E02868C27AA24212D0407DA0422C
:101560000FD008786B4601222146FFF7ECF910B145
:101570004FF0FF3038BD9DF800202146DFA002F07B
:101580001FFB641CE4B269680879A042E2D800201D
:1015900038BDD94A30B40B4611684FF0FF34CD7ACC
:1015A000854206D0497D814203D051680A79824242
:1015B00002D8204630BC70470C780146204630BC2B
:1015C0000122FFF7C0B938B5CB4D044695F823008A
:1015D000A04201D1002038BD0CB1302000E0002035
:1015E0008DF80000A87C28B19DF8000040F00200B2
:1015F0008DF8000095F8220028B19DF8000040F019
:1016000080008DF8000028686B460122017D686823
:101610000078FFF71DFA10B14FF0FF3038BD85F8A4
:101620002340D7E7F8B5044610F0700F4FF00006DE
:1016300001D0012004E014B18DF8006002E04020E8
:101640008DF80000AC4D6B4601222868817C6868EB
:101650000078FFF7FDF94FF0FF3760BB9DF8000001
:1016600020F0400028738DF80060600602D404204A
:101670008DF80000A00605D49DF8000040F002009F
:101680008DF80000E00605D49DF8000040F0010050
:101690008DF80000200705D49DF8000040F03800C8
:1016A0008DF8000028686B460122C17C68680078CC
:1016B000FFF7CEF910B1AE723846F8BD24B1082C50
:1016C00002D00020FFF77FFFAC722E75322001F0B0
:1016D0000FFD0020F8BDF8B5874D0446A87CA04258
:1016E00001D10020F8BD84484FF0FF366B46D0E9A9
:1016F00000104FF001020979007834B3FFF723F9A5
:10170000D8BB9DF800006B4620F020008DF800004B
:1017100028680122017968680078FFF799F960BBB1
:10172000032001F0E5FC02208DF8000095F822006E
:1017300070B382202AE028686B460122017D686828
:101740000078FFF785F9C0B92DE0FFF7FCF8A0B9E4
:10175000A87AC0079DF8000002D040F0200001E008
:1017600020F020008DF8000028686B4601220179E6
:1017700068680078FFF76CF908B13046F8BD0320BF
:1017800001F0B6FC95F8220000B180208DF8000031
:1017900095F823000028CED09DF8000040F03000DE
:1017A0008DF80000C7E7AC749BE7F8B5524D4FF0D9
:1017B000FF36A87A00287CD000248DF800402868E5
:1017C0006B460122C17B68680078FFF741F9002869
:1017D0006FD128686B460122417968680078FFF76D
:1017E00037F9002865D128686B46012201796868BD
:1017F0000078FFF72DF900285BD195F82400E0B3BD
:101800000C208DF8000028686B4601220179686879
:101810000078FFF71DF900287DD1322001F068FC27
:10182000C0208DF80000A87AC00702D0E0208DF813
:10183000000028686B460122017968680078FFF78C
:1018400007F9002867D1687C18B102208DF80000E4
:1018500001E08DF8004028686B460122C17B686872
:101860000078FFF7F5F820BB8DF8004028686B463C
:1018700001224179686800783DE0FFE704208DF897
:10188000000028686B460122017968680078FFF73C
:10189000DFF870B9A87C88B9A87AC0070ED060209C
:1018A0008DF8000028686B4601220179686800788D
:1018B00000E02BE0FFF7CCF840BB01E04020EFE771
:1018C000322001F015FC687C18B101208DF8000071
:1018D00001E08DF8004028686B460122C17B6868F2
:1018E0000078FFF7B5F888B92868034B4179686834
:1018F0001033012200780AE01400002025233578F7
:101900003A20252335780D0A0000000003E0FFF798
:101910009FF8002800D03046F8BD2DE9F0410026A0
:1019200020F00104FE4D95F8240010B10020BDE820
:10193000F081A87A4FF0FF3838B120402F7C28740E
:10194000A04200D0464624B901E04046EFE7287D9A
:1019500040B10120FFF7D2FD3CB1FFF726FF20B1D7
:101960002F74F2E70020FFF7C9FD3046DFE738B5F6
:10197000EB4C4FF0FF35A17A31B3BC2801D30120E5
:1019800010E0622801D302200CE02A2801D30320B2
:1019900008E0142801D3042004E00A2801D305201C
:1019A00000E006208DF80000E07A9DF800108842E3
:1019B00001D1002038BD20686B4601228178606823
:1019C0000078FFF745F808B1284638BD9DF80000BB
:1019D000E072EEE72DE9F84304464FF0FF3928287E
:1019E00044D80727CE4D00267CB10120FFF7EBFD40
:1019F00020208DF800004FF00108012C17D0052C95
:101A000018D88DF8018005201FE00020FFF7DBFDCE
:101A10008DF800608DF8017028686B460222817C89
:101A200068680078FFF714F800BB2E7529E08DF880
:101A30000160E8E7142C04D802208DF801000A2088
:101A400003E003208DF801001420FFF790FF9DF8BC
:101A500001006B4607EB80108DF801002868022218
:101A6000817C68680078FEF7F3FF10B14846BDE856
:101A7000F8830820A8722E7385F814800020FFF7E1
:101A80004CFF0020F3E7F8B5A54D04464FF0FF37B3
:101A9000A87A28B395F8240010BB287D48B12CB152
:101AA000282C03D8E0B2FFF795FF24E00020FFF7D1
:101AB00091FF4FF47A76042C01D2042402E0B44260
:101AC00000D93446B6FBF4F0401E8DF800002868BB
:101AD0006B460122417868680078FEF7B9FF08B1CB
:101AE0003846F8BD9DF80000401CB6FBF0F0E881D8
:101AF0004008FFF73CFF0020F8BD38B5884C4FF098
:101B0000FF35A17A19B3022806D0042806D0082888
:101B10000ED010281BD10DE0002000E008208DF829
:101B20000000607A9DF80010B0EBD10F04D005E002
:101B30001020F4E71820F2E7002038BD20686B463B
:101B40000122C17960680078FEF782FF08B128465B
:101B500038BD9DF80000C0086072EDE738B5704CE4
:101B60004FF0FF35A17A31B3FA2809D0B0F5FA7FEA
:101B700008D0B0F57A7F0FD0B0F5FA6F1BD10DE029
:101B8000002000E008208DF80000207A9DF8001069
:101B9000B0EBD10F04D005E01020F4E71820F2E7F5
:101BA000002038BD20686B4601228179606800788A
:101BB000FEF74EFF08B1284638BD9DF80000C0086A
:101BC0002072EDE72DE9FC41554C80208DF8000096
:101BD00020686B460122817C60680078FEF738FF40
:101BE0004FF0FF37002832D1642001F081FA002540
:101BF0008DF8005020686B460122817C6068007877
:101C0000FEF726FF002870D120686B460622817DF2
:101C100060680078FEF797FE002866D19DF8050001
:101C20009DF80310C007400F01F0010140EA410197
:101C30009DF801004FF0010600F00100014309D0BA
:101C4000012905D0022915D036A001F0B9FF4CE0DA
:101C5000E67410E020686B460122C1786068007865
:101C6000FEF771FE40BB9DF8000010F00F0020D081
:101C7000042822D0E574FF2004F80A0F4FF6FF7104
:101C800004F8020C04F8010C6070A180A0712072AD
:101C9000A67026766576E572A572E56025616561B8
:101CA000A576E576A5834FF4FA60FFF757FF18B9DC
:101CB00007E0264801F084FF17E025A001F080FF2F
:101CC000C6E70220FFF719FF78B92A20FFF74FFE79
:101CD00058B93220FFF7D7FE38B90020FFF71DFEB4
:101CE00018B90020FFF7F7FC10B13846BDE8FC81B9
:101CF0000020FFF797FC0020F8E770477CB504460A
:101D000007484FF0FF35817A11F0700F31D001682C
:101D100040686B46097B00780622FEF714FE27E038
:101D200014000020556E737570706F7274656420B6
:101D3000736F6674776172652070726F6475637417
:101D4000207265762025642E0A00000020680008B5
:101D500048616C662073656E73697469766974791D
:101D6000207061727420666F756E642E0A00000028
:101D700008B128467CBDBDF8000040BA2080BDF8FF
:101D8000020040BA6080BDF8040040BAA080002084
:101D90007CBD7CB50446FE484FF0FF35817A0907CB
:101DA00008D5016840686B46497B00780622FEF73B
:101DB000CAFD08B128467CBDBDF8000040BA2080AD
:101DC000BDF8020040BA6080BDF8040040BAA080AF
:101DD00000207CBDF8B5EE4C07464FF0FF35A07AE9
:101DE00040B120686B460222817B60680078FEF774
:101DF000AAFD08B12846F8BDBDF80000646840BAE5
:101E000005B2E08803F05EFC0646B4F9080003F072
:101E100041FC0446284603F03DFC214603F032FD18
:101E2000314603F039FBDB4903F0CEFA102103F011
:101E3000FEFD03F0F3FB38600020F8BD2DE9FC4106
:101E400004004FF0FF3862D0206820B9606810B9F4
:101E5000A06800285CD0CE4F03226B4678681146FC
:101E60000078FEF770FDE0BB9DF80010082000EB45
:101E7000111101F00F029DF801109DF8023000EBE6
:101E8000111100EB1310236840325B0093FBF2F258
:101E900016B2626801F00F015200403192FBF1F17D
:101EA0000DB2A16800F00F004900403091FBF0F046
:101EB00004B2786806226B4600781146FEF743FDAF
:101EC00078B9BDF80000BDF8021040BABDF8042092
:101ED000304449BA52BA030A294422448DF80030EA
:101EE00000E014E08DF80100080A8DF80200100AE5
:101EF0008DF804008DF803108DF80520786806220F
:101F00006B4600781146FEF7A3FD002800D040463E
:101F1000ECE69F49097A39B1012907D002290AD094
:101F200003290BD0002103E0FA2101E04FF4FA71FC
:101F30000180002070474FF47A71F9E74FF4FA619D
:101F4000F6E7934A517A41B1012908D002290FD00E
:101F500003290FD04FF0FF307047022100E0042129
:101F60000170D17C11B101784900017000207047E7
:101F70000821F5E71021F3E78549C97A072913D22B
:101F8000DFE801F01204060A0C0E1000BC2100E08C
:101F900062210180002070472A21FAE71421F8E726
:101FA0000A21F6E70521F4E70021F2E7784991F8E4
:101FB000242012B14FF0FF307047C9890180002002
:101FC000704700210180481E70474FF0FF30704776
:101FD0006F49097A41B1012908D002290AD00329A1
:101FE0000AD04FF0FF3070476B4900E06B49016049
:101FF000002070476A49FAE76A49F8E7644A517A6B
:1020000041B1012909D0022911D0032912D04FF082
:10201000FF3070474FF4804101E041F69C71018030
:10202000D17C11B1018849080180002070474FF42C
:102030008051F4E74FF40061F1E75549097C0170E4
:10204000002070475249897A01B1012101700020B6
:10205000704738B505464E484FF0FF34817A41B19C
:10206000016840686B46097C00780222FEF76BFC31
:1020700008B1204638BDBDF8000040BA28800020D5
:1020800038BD2DE9FE4F884641498146002491F82C
:1020900024001E4625464FF0FF3BD0BB0020307089
:1020A000887AB0B3087CA0B3420600D50224820629
:1020B00000D5A41CC20600D5A41C000700D5A41D91
:1020C0008A460968DAF804006B46897A00780222A9
:1020D000FEF739FCE8B9BDF8000047BAA74263D360
:1020E000DAF804004188B7EB510F13D9DAF8001081
:1020F00000786B46497C0122FEF725FC48B99DF823
:102100000000C00606D5FFF750FB6FF00100BDE8E8
:10211000FE8F0AE0DAF80010DAF804006B46C97A9C
:1021200000782246FEF70FFC08B15846EFE7B7FBF0
:10213000F4F00C99401E087000203070A4B39AF897
:10214000101050460A07694613D5BDF80020062531
:1021500052BAA8F80020BDF8022052BAA8F802200E
:10216000BDF8042052BAA8F80420327842F00802E0
:102170003270A5421AD0027C520617D54A1912882D
:1021800052BAA9F80020327842F0400232700CE0D6
:102190001400002000000C420000034300008342B2
:1021A00033330342333383411EE0AD1CA5420CD0D0
:1021B000027C920609D54A19AD1C128852BAA9F8B8
:1021C0000220327842F020023270A5420CD09AF8F8
:1021D0001000C00608D54819008840BAA9F80400C4
:1021E000307840F010003070002090E72DE9F8437F
:1021F000FA4E0546174696F8240089464FF0FF38F8
:1022000088B3B07A78B330686B460222817A7068FE
:102210000078FEF798FB30BBBDF8000044BAAC4232
:1022200002D2002038701EE070684188B4EB510F74
:1022300010D9316800786B46497C0122FEF783FB98
:1022400088B99DF80000C00604D5FFF7AEFA6FF01C
:1022500001000CE43068EAB24B46C17A706800783D
:10226000FEF771FB08B140460CE4B4FBF5F0401EEC
:102270003870002006E4D94981F822000020704718
:102280002DE9FE4F05460120D44E8DF800004FF099
:1022900000088DF8018030680C461746817C706814
:1022A0006B4602220078FEF7D3FB4FF0FF3A00287E
:1022B0007AD1C82000F01CFF8DF8008030686B4692
:1022C0000122C17B70680078FEF7C2FB0028EFD1C5
:1022D00030686B460122417970680078FEF7B8FBE0
:1022E0000028E5D130686B460122817C7068007857
:1022F000FEF7AEFB0028DBD130686B460122C17DC2
:1023000070680078FEF7A4FB0028D1D130686B46D6
:102310000122017970680078FEF79AFB0028C7D186
:102320004FF00C098DF8009030686B46012201795E
:1023300070680078FEF78CFB002835D10F2000F084
:10234000D7FEB06A6B460122407A8DF800003068F3
:10235000817870680078FEF77BFB002824D1B06A92
:102360006B460122007A8DF8000030684178706871
:102370000078FEF76DFB002873D1B06A807A0FB148
:1023800040F0E0008DF8000030686B460122817952
:1023900070680078FEF75CFB002862D12FB1B06A4C
:1023A000C07A40F0E00001E04AE018208DF800001B
:1023B00030686B460122C17970680078FEF748FBEF
:1023C000F0BB17B1C82000F093FE40208DF800004C
:1023D00030686B460122017970680078FEF738FB9F
:1023E00070BB78208DF8000030686B46012241797F
:1023F00070680078FEF72CFB10BB322000F078FEEE
:102400008DF80080306847466B464179706801223C
:102410000078FEF71DFB98B931687068B046897A7C
:1024200000786B460222FEF78EFA48B9BDF800002C
:10243000AF6040BAB0FBF9F06F60C6B22F6000E049
:102440000FE0A76067602760002738E0D8F8001029
:10245000D8F804006B46C97A00780C22FEF773FAAC
:1024600008B1504653E6BDF80000236840BA02B2F6
:10247000BDF802001A4440BA01B2BDF8040022605F
:10248000626840BA11446160A16800B20844A0606B
:10249000BDF806002B6840BA02B2BDF808001A4425
:1024A00040BA01B2BDF80A002A606A6840BA114415
:1024B0006960A96800B208447F1CFFB2A860B742F7
:1024C000C4D328688322C117090441EA10410004DB
:1024D000002301F050FB3246002301F04CFB286042
:1024E00068688322C117090441EA104100040023EF
:1024F00001F041FB3246002301F03DFB6860A86813
:102500008322C117090441EA10410004002301F0AD
:1025100032FB3246002301F02EFBA86020684FF406
:102520000065C117090441EA104100042A4600234E
:1025300001F021FB3246002301F01DFB20606068A2
:102540002A46C117090441EA10410004002301F0A2
:1025500012FB3246002301F00EFB6060A0682A46A1
:10256000C117090441EA10410004002301F003FBF4
:102570003246002301F0FFFAA060002802DDA0F53A
:10258000803001E000F58030A0600020BFE538B564
:10259000124C94F8241081421DD00025E8B194F823
:1025A0002500E8B10020FEF7A9FF0020FFF793F80F
:1025B000E08CFFF768FA8DF8005060686B460122E6
:1025C00000782321FEF744FA012084F82400FEF766
:1025D00095FFFFF7EAF8002038BD04E01400002062
:1025E0004FF0FF30F8E70020FEF788FF207C8DF8E1
:1025F000000060686B46012200782321FEF728FA6C
:1026000084F82450E5E72DE9F047F94E82468AB078
:1026100096F824000F4620B10020FFF7B8FF0125EF
:1026200000E0002507A8FFF774FC06A8FFF789FC67
:1026300009A8FFF7A1FC08A8FFF7B8FC96F80A90D4
:1026400096F810800024002239465046FFF718FE05
:1026500010B1641C022CF6DB022C1AD000240122DB
:1026600003A96846FFF70CFE10B1641C022CF6DBD0
:10267000022C0ED003A9384600F050FBC7B26946C1
:10268000504600F083FB10F0FF0F4FF0000402D023
:1026900002E0002403E001240FB944F00204FF200B
:1026A00030727072F0724FF6FF71F181B072307457
:1026B00001203073BDF81C00FFF750FA9DF8180098
:1026C000FFF71BFABDF82400FFF751F9BDF8200011
:1026D000FFF7D9F94846FEF7A5FF4046FFF71DF979
:1026E00015B10120FFF753FF0AB02046BDE8F0877F
:1026F000F8B517000D464FF0FF341FD0BC4EB17A2D
:10270000E1B1010A8DF80010C0B28DF80100411945
:1027100070684289914211D8316800786B46097E11
:102720000222FEF795F948B93068EAB23B46417D8E
:1027300070680078FEF78CF9002800D02046F8BDBC
:10274000F8B517000D464FF0FF341FD0A84EB17AF0
:10275000E1B1010A8DF80010C0B28DF801004119F5
:1027600070684289914211D8316800786B46097EC1
:102770000222FEF76DF948B93068EAB23B46417D66
:1027800070680078FEF7DFF8002800D02046F8BD1A
:102790002DE9FF4FDFF858A2054685B09AF82500CD
:1027A000914688464FF0FF3BC0BBB8F1000F35D0D3
:1027B00000241FE0281B102800DD102086B208EB43
:1027C00004073A4631462046FFF792FF30BB6A467F
:1027D00031462046FFF7B4FF00BB38463246694613
:1027E00001F026FB20B16FF0010009B0BDE8F08FC9
:1027F000A01984B2AC42DDD34FEA19208DF8100045
:102800008DF81190DAF80000544604AB817EDAF8B6
:10281000040002220078FEF71BF908B15846E4E7ED
:10282000012084F825000898E0840020DDE7704945
:1028300091F824100170002070474FF0FF3070476E
:102840004FF0FF3070474FF0FF3070472DE9F84FE1
:10285000674C0F4604F1160115004FF0FF3B8A4606
:102860004FF000094FF0010877D0B0F5FF5F01D9B4
:10287000FF2605E0202801D2012601E0C0F347161B
:1028800007B90127282D6AD8607DF0B994F8240093
:1028900028B10020FFF77BFE84F8208001E084F857
:1028A00020905046FFF735FB51481830FFF749FBA1
:1028B0004F481A30FFF760FB4D481C30FFF776FB9E
:1028C000A07AA0774A48217CC1770020FEF716FE47
:1028D0000020FFF77FF88DF8009020686B460122FA
:1028E000817860680078FEF7B3F8002837D140207F
:1028F0008DF8000020686B460122C17B606800787B
:10290000FEF7A6F850BB8DF800608DF801702068C6
:102910006B460222017A60680078FEF799F8E8B900
:10292000052000F0E5FB607A072606EBC0008DF875
:10293000000020686B460122C17960680078FEF7CC
:1029400087F858B920208DF80000012D08D0052DFA
:102950000AD840468DF801800DE01DE01FE04CE0F4
:1029600048468DF8019006E0142D01D8022000E0C1
:1029700003208DF80100C0B206EB80108DF8010035
:1029800020686B460222817C60680078FEF760F860
:1029900028B984F8158027E000200A5C3AB3FF20AC
:1029A00020726072E0724FF6FF71E181A0722074B4
:1029B00084F80C80A07FFEF735FEE08AFFF7CEF8A2
:1029C000207EFFF79AF8608BFEF7D1FFA08BFFF710
:1029D0005AF8E07FFEF7A1FF94F8200010B1012023
:1029E000FFF7D5FD84F815900020BDE8F88F01E0D1
:1029F00014000020401C0C28CFD35846F5E710B532
:102A000088B002A905A8FFF7FEFD032802D0012027
:102A100008B010BD6846FFF7DBFA059802F03AFEF1
:102A200000990C4602F062FE02F0F8FD059006984F
:102A300002F030FE214602F059FE02F0EFFD069052
:102A4000079802F027FE214602F050FE02F0E6FD54
:102A5000079005A8FEF7AFF801A8FFF7CFFABDF879
:102A6000040002994143029103994143039104995F
:102A7000414302A80491FEF700F90020C8E790F94D
:102A80000010002902DD4FF00000704702DA4FF01D
:102A90000400704790F90110002902DD4FF0010099
:102AA000704702DA4FF00500704790F902000028E5
:102AB00002DD4FF00200704702DA4FF00600704767
:102AC0004FF00700704700B50246FFF7D8FF0346F6
:102AD000D01CFFF7D4FF43EAC003901DFFF7CFFFE0
:102AE00043EA801080B200BD10B5FDF772FDFFF71C
:102AF00069F808B10A2010BD7820FEF793FD10F0A8
:102B0000FF0F01D0012010BD7820FEF706FF10F066
:102B1000FF0F01D0022010BD6420FEF7B4FF10F0BB
:102B2000FF0F01D0032010BDFDF7C2FF10F0FF0F13
:102B300001D0042010BDED48FFF7C5FFFDF7C0FF31
:102B400010F0FF0F01D0052010BD40F27310FEF70A
:102B500002FB10F0FF0F01D0062010BD6420FEF72D
:102B6000F3F810F0FF0F01D0072010BDFFF747FF6B
:102B700008B1082010BD0120FFF709FD10F0FF008B
:102B8000F8D0092010BD2DE9F74F8EB00CA906A88A
:102B9000CDE900010BAB02AA09A907A8FEF7E8FBE3
:102BA00010B1012011B021E6BDF81800C0057DD597
:102BB000029802F06FFD6FF01D04214602F037FF0E
:102BC0008146039802F066FD214602F030FF804600
:102BD000049802F05FFD214602F029FF06460598A1
:102BE00002F058FD214602F022FF824601214846AC
:102BF00002F01DFF0746314602F078FD04464FF013
:102C00004041404602F072FD0546514602F06EFD1D
:102C1000214602F0D9FB02F0ABFB01F04FFB4FF075
:102C2000663B5A46B24B02F0C9F801F075FE0E99A8
:102C300008600121304602F0FAFE3146009002F0B1
:102C400055FD04462846414602F050FD214602F05B
:102C500019FE4FF07E5102F0B7FB02F089FB0446EB
:102C60000D463846414602F041FD07465146009860
:102C700002F03CFD394602F0A7FB02F079FB224648
:102C80002B4601F063FD5A46994B02F097F801F08C
:102C900043FE0F9908605146084602F027FD07469B
:102CA0003146084602F022FD054600E034E0414688
:102CB000084602F01BFD04464946084602F016FD90
:102CC000214602F081FB294602F0DCFD394602F084
:102CD000D9FD02F04DFB04460D465146484602F030
:102CE00005FD07463146404602F000FD394602F038
:102CF0006BFB012102F09BFE02F03AFB22462B46C1
:102D000001F024FD5A467A4B02F058F801F004FE17
:102D100010990860002045E7022043E72DE9FE4FA7
:102D200080460F460025684600F091F800246FF0B9
:102D30000F0AE946012658F8240057F82410401AD3
:102D400000D5404202F0A6FC514602F070FE59F850
:102D5000241011F0FF4F0BD002F09EFB4FF07E517C
:102D600002F090FD634920F00040884205DC07E056
:102D7000614908446149884202D306FA04F00543D8
:102D8000641C032CD7DB2846BDE8FE8F2DE9F84FE5
:102D90008246564889462C38002540686B460322F7
:102DA00000780D21FDF7CFFD08B107201DE69DF845
:102DB0000000002400F01F008DF800009DF80100C5
:102DC0006F4600F01F008DF801009DF802004FF0E3
:102DD000010800F01F008DF802005AF8241059F87D
:102DE0002400081A00D5404202F054FC6FF00F0195
:102DF00002F01DFE0646385DE0B1414ADFF804B13D
:102E000004E05946104602F071FC0246385D401E4F
:102E100010F0FF003855F4D11146304602F03CFB6B
:102E20004FF07E5102F02EFD324920F000408842E2
:102E300005DC07E034483044B0F1D97F02D908FA04
:102E400004F00543641C032CC7DB2846CDE52DE9BF
:102E5000FC47054625486B462C38042240680D2166
:102E60000078FDF770FD10B10720BDE8FC879DF8E4
:102E700000001C2101EAD0029DF80300DFF88C90CD
:102E8000C0F301131A438DF804209DF80120C0F30C
:102E9000810301EAD2021A438DF805209DF8022031
:102EA00000F0030001EAD20101430024184F8DF81D
:102EB0000610A04601AE305D10B145F8249009E03F
:102EC00045F824800CE055F82400394602F00EFC49
:102ED00045F82400305D401E10F0FF003055F2D15F
:102EE000641CE4B2032CE6D30020BEE740000020BF
:102EF00066A64C40295C0F3E666666C19A99D90069
:102F00000000C84154E3853F0000E0BE7B14AE3EA4
:102F10001D5A843F70B5044686B00121082000F098
:102F2000EEFB0121880400F0F3FB4FF40060ADF8E4
:102F300010000420534E8DF8130004A9304600F011
:102F4000F6F93015ADF8100003258DF81250182051
:102F50008DF8130004A9304600F0E9F90020ADF81F
:102F600004000094ADF80600ADF80800ADF80C00C0
:102F70000C20454CADF80A006946204600F03EFCA6
:102F8000012240F22551204600F0B5FC01212046E7
:102F900000F0A7FC4FF4A06000F094FD27208DF80E
:102FA00014008DF8155002208DF8160001208DF8C0
:102FB000170005A800F08BFD06B070BD10B5324CAF
:102FC0000146204600F0E3FC8021204600F040FD51
:102FD0000028F9D010BD70B50D460646002404E067
:102FE000305DFFF7EBFF641CA4B2AC42F8D370BDB8
:102FF0007CB5AA218DF8001001788DF80110417878
:103000008DF8021081788DF80310C1788DF80410C6
:1030100001798DF8051040798DF80600FF208DF8B4
:10302000070000246D46285DFFF7C8FF641CE4B26A
:10303000082CF8D37CBD70B5134D40F225563146AF
:10304000284600F00FFD50B1104C0020608028464B
:1030500000F0A1FC0E4922888854521C22800821CD
:10306000284600F0F5FC012806D1284600F093FC24
:103070000821284600F0F3FC31462846BDE87040A0
:1030800000F00FBD000C0140004800404A00002045
:103090007C00002010B56FF0040000F058FD2048BF
:1030A00020490068B0FBF1F01F49C0B200EB4002BC
:1030B0000870C2EBC0104FF6FF7202EAC0004880F1
:1030C00010BD1949097848434FF0E02148610023B9
:1030D0008B61086940F0010008610869C20701D0EE
:1030E000C003FAD5086920F0010008618B617047C0
:1030F0000D49498848434FF0E021486100238B6126
:10310000086940F0010008610869C20701D0C003E6
:10311000FAD5086920F0010008618B617047000052
:103120000000002000127A004E0000207047404945
:103130000A885206FCD53E4AC1B2121D1180704762
:1031400070B5054686B0012144F2040000F0D7FABC
:103150004FF40070ADF8100003248DF812401820D1
:10316000344E8DF8130004A9304600F0E0F8301515
:10317000ADF8100004208DF8130004A9304600F0CB
:10318000D6F825208DF814008DF815408DF81640DE
:1031900001208DF8170005A800F099FC0020ADF87B
:1031A0000400ADF80600ADF80800ADF80C000C20E6
:1031B0001F4CADF80A0000956946204600F01EFB42
:1031C000012240F22551204600F095FB01212046C6
:1031D00000F087FB06B070BD70B5154C40F225516C
:1031E000204600F03FFC00280ED0204600F0D3FB24
:1031F000114AC1B21088030406D444044FF00003FE
:1032000006D50A2901D0138070BD40F400400DE0BE
:103210000D2909D0C0F30D04084D401C80B229557A
:103220001080C728EFD870BD40F48040108070BD7A
:1032300000380140000801405200002076010020C3
:103240000948804709480047FEE7FEE7FEE7FEE73A
:10325000FEE7FEE7FEE7FEE7FEE7FEE70448054976
:10326000054A064B70470000DD040008ED00000829
:10327000A0020020A0080020A0040020A00400203C
:103280008F4910B5884206D10121042000F049FA87
:10329000002104203BE08B49884206D1012108200F
:1032A00000F03FFA0021082031E08749884206D12A
:1032B0000121102000F035FA0021102027E0834979
:1032C000884206D10121202000F02BFA0021202085
:1032D0001DE07F49884206D10121402000F021FAFB
:1032E0000021402013E07B49884206D10121802043
:1032F00000F017FA0021802009E0774988420AD1BE
:1033000084150121204600F00CFA00212046BDE87A
:10331000104000F006BA10BD10B50121084600F0BB
:1033200000FA0021BDE81040012000F0FAB9F0B524
:10333000CC78002204F00F03E40601D58C782343F7
:103340000C784FF00F0C14F0FF0F4FF0010E1BD054
:1033500005680E880EFA02F42640A64210D19600A7
:103360000CFA06F725EA070703FA06F5CE783D437F
:10337000282E02D0482E02D002E0446100E0046111
:10338000521C082AE5D305600A88FF2A1CD9446824
:10339000002202F108060EFA06F50E882E40AE4213
:1033A0000ED196000CFA06F7BC4303FA06F7CE7866
:1033B0003C43282E00D14561CE78482E00D10561CE
:1033C000521C082AE5D34460F0BD4FF6FF7101801E
:1033D000022181700421C17070470246002092686A
:1033E0000A4200D001207047806880B270470246D0
:1033F0000020D2680A4200D001207047C06880B225
:10340000704701617047416170470AB101617047BF
:1034100041617047C160704741F4803282618161CF
:1034200082618169806970472C4B10B51A684FF62C
:103430008074224042EA00100843186010BD2849F9
:10344000C8617047F0B5254C002801DAE36900E057
:103450006368450D2E0185B2C0F30157B540C0F336
:103460000342032F05D0C6020AD503269640B34374
:1034700007E023F07062636823F07063636002E02A
:10348000AB4343F0706201B12A43002801DAE261E4
:10349000F0BD6260F0BD10B58A0721F003040F494A
:1034A000120F21440F238C6893409C438C608B68DF
:1034B000904003438B6010BD0949C1F8DC007047A0
:1034C00000080140000C01400010014000140140C0
:1034D00000180140001C0140002001400000014094
:1034E00000002042A548016841F0010101604168E7
:1034F000A34A114041600168A24A1140016001687D
:1035000021F480210160416821F4FE0141604FF403
:103510001F018160704799490A6822F480320A606D
:103520000A6822F480220A60B0F5803F07D0B0F527
:10353000802F03D1086840F4A02008607047086815
:1035400040F48030F9E70346002059098B4A0129ED
:103550000AD002290AD0516A03F01F0201239340C6
:103560000B4200D0012070471168F5E7116AF3E7BC
:1035700018B500204FF4A06400903120FFF7E3FF5E
:103580000099491C0091A14201D00028F5D03120BA
:10359000FFF7D9FF002800D0012018BD774A116835
:1035A00021F0F80141EAC0001060704776490860D8
:1035B0007047724B5A68084322F47C1210435860DB
:1035C00070477149086670476C4A516821F00301E1
:1035D0000143516070476948406800F00C00704733
:1035E000664A516821F0F001014351607047634A17
:1035F000516821F4E0610143516070475F4A5168AE
:1036000021F4605141EAC000506070475B4A0029D4
:10361000517A01D0014300E08143517270475A4909
:10362000C1F8D8007047554A516821F44041014320
:10363000516070475149002281F8202081F82020F4
:10364000012802D0042802D1052081F8200070470B
:103650004E490860704749490A6A02430A62704746
:103660004A4944390860704730B5444A5168484B6C
:1036700011F00C0103D0042901D0082901D0036006
:1036800012E05168536801F470114FF0020413F412
:10369000803F04EB914102D053689B0301D53D4B21
:1036A00000E03B4B5943016051680F2303EA1111BD
:1036B000394B5C5C0168E14041605468072505EACC
:1036C00014241C5D21FA04F48460546805EAD424AF
:1036D0001B5DD940C1605268032303EA92322E4B2E
:1036E0001B1F9A5CB1FBF2F1016130BD234A002936
:1036F000516901D0014300E08143516170471F4A85
:103700000029916901D0014300E081439161704734
:103710001A4A0029D16901D0014300E08143D161F7
:103720007047164A0029D16801D0014300E0814367
:10373000D1607047114A0029116901D0014300E0AE
:1037400081431161704711494039086070470E4943
:10375000C86470470949C87170470848416A41F018
:10376000807141627047054A0146002092680A4212
:1037700000D0012070470149887270470010024054
:103780000000FFF8FFFFF6FE0000424280044242C4
:1037900000127A0000093D005C000020C44910B509
:1037A00088420AD101218C032046FFF7BAFF204648
:1037B000BDE810400021FFF7B4BFBE49884202D1E6
:1037C00001214C0410E0BC49884202D101218C0443
:1037D0000AE0BA49884202D10121CC0404E0B84988
:1037E00088420AD101210C052046FFF7A3FF20469D
:1037F000BDE810400021FFF79DBF10BD30B5044665
:10380000008A85B00D464CF6FF710840E9880143F7
:103810002182A0894EF6F3110840A9882A89114314
:103820006A8902431143A181A08A4FF6FF410840F3
:10383000A9890143A1826846FFF716FF9C4884428C
:1038400001D1039800E00298A189090400EBC001AE
:1038500001EB0010296801D5490000E08900B0FBA8
:10386000F1F06422B0FBF2F109010B096FF01805C9
:103870006B4300EB8300A3891D044FF0320306D590
:1038800003EBC000B0FBF2F000F0070005E003EB33
:103890000010B0FBF2F000F00F000843208105B0EB
:1038A00030BD4FF41651016000218180C18001813B
:1038B0000C2242818181704710B5028A4FF2FF03CA
:1038C0001A400B884C8823438C88C9880C432343B7
:1038D0001343038210BD0021018041808180C1809B
:1038E00070470029818902D041F4005101E021F4A0
:1038F00000518181704710B5C1F3421301F01F04DC
:103900000121A140012B07D0022B07D01430002A3F
:10391000026805D00A4304E00C30F8E71030F6E7FF
:103920008A43026010BD002A828A01D00A4300E067
:103930008A4382827047028A22F00F020282028A40
:103940000A4302827047828922F40062828182895E
:103950000A43828170470029818902D041F0020127
:1039600001E021F0020181817047028A22F02002E9
:103970000282028A0A43028270470029018A02D029
:1039800041F4804101E021F4804101827047C1F39C
:103990000801818070478088C0F3080070478189E2
:1039A00041F0010181817047028BD2B20283028B08
:1039B00042EA012101837047028B02F47F420283B5
:1039C000028B0A43028370470029818A02D041F0AA
:1039D000200101E021F02001818270470029818AC5
:1039E00002D041F0100101E021F010018182704706
:1039F0000029818A02D041F0080101E021F008018C
:103A0000818270470029818902D041F4004101E0A0
:103A1000C1F30E01818170470029818A02D041F4EF
:103A2000006101E021F4006181827047828A22F006
:103A300004028282828A0A43828270470029818A34
:103A400002D041F0020101E021F0020181827047C1
:103A50000246002012880A4200D001207047C94364
:103A60000180704770B501F01F0501260024C1F3E5
:103A7000421306FA05F2012B0FD0022B0FD0838AD6
:103A80004FEA11210088134206FA01F600EA060007
:103A900001D000B10124204670BD8389F0E7038A7C
:103AA000EEE70A0A01219140C943018070470000F6
:103AB000003801400044004000480040004C0040F5
:103AC000005000402849084328490860704730B535
:103AD0000F23C27801780125F2B1244A126801F15E
:103AE000E02102F4E062C2F5E062120AC2F10404CD
:103AF000D3404278A24084781C401443220181F8CC
:103B00000024007800F01F018D404009800000F182
:103B1000E020C0F8005130BD01F01F008540480989
:103B2000800000F1E020C0F8805130BD104A114003
:103B300001430E48001F016070470C4A121D002906
:103B4000116801D0014300E08143116070474FF0DC
:103B5000E0210428086903D020F0040008617047C0
:103B600040F00400FAE700000000FA050CED00E068
:103B700080FFFF1F704710B54C1084EA530404D532
:103B80004042C1F1000138BF491E1B4204D55242D8
:103B9000C3F1000338BF5B1E00F082F914F0804FC0
:103BA00004D04042C1F1000138BF491E14F0004F5B
:103BB00004D05242C3F1000338BF5B1E10BD0000A9
:103BC0000FB4044910B503AA029800F045FA10BCDE
:103BD0005DF814FB5400002070B504468569006848
:103BE000C10601D5302600E02026C00707D070BDF1
:103BF000D4E9012130469047206A401C20626D1EA6
:103C0000F6D570BD70B5044685690078C00707D148
:103C100070BDD4E9012120209047206A401C206219
:103C20006D1EF6D570BD00002DE9F041064600245A
:103C300010687529314616A510D0AFF30080002812
:103C400002DA404213A507E031688A0701D512A5C0
:103C500002E0490704D511A5012401E0AFF300807B
:103C600000210A2206F1240709E0B0FBF2FCB0FBB8
:103C7000F2F302FB1C00303078541846491C00282F
:103C8000F3D123462A463046BDE8F04100F08AB918
:103C9000000000002D0000002B00000020000000AC
:103CA00070B504460D4621461068AFF300802188A8
:103CB000090502D50F4A7A4402E00E4A7A440E32D0
:103CC000002104F1240305E000F00F060009965DD1
:103CD0005E54491C0028F7D120780023000704D542
:103CE000702D02D009B1022311322046BDE8704088
:103CF00000F058B9362A00002DE9F05F89460446E5
:103D00004FF0000ADFF824B1FB44C0F820A02046A1
:103D1000E168884700287DD0252806D0D4E9012114
:103D20009047206A401C2062F1E700255F4620464C
:103D3000E16888472028064607DB312E05D2B819EE
:103D400010F8200C08B10543F1E7A80701D525F0CC
:103D50000405C4F81CA00027C4F818A02A2E09D016
:103D6000304600F0A3FA38B304EB8708303EC8F8B9
:103D7000186019E059F8041B204604EB8702916192
:103D8000E1688847012F064618D1E069002820DA4B
:103D900025F020051DE0D8F8180000EB800006EBA8
:103DA00040003038C8F818002046E16888470646C9
:103DB00000F07CFA0028EED1012F0AD02E2E08D177
:103DC0002046E16888477F1C0646022F45F0200503
:103DD000C4DBA069002803DA404245F00105A06178
:103DE000E80701D025F01005A6B1A6F14100192879
:103DF00002D8203645F400654A4631462046256003
:103E00004D46FCF7ADF960B1012807D0ED1D25F056
:103E1000070000E007E000F1080978E705F1040970
:103E200075E730467AE7206ABDE8F09F0C2A00006B
:103E300040EA010310B59B070FD1042A0DD310C827
:103E400008C9121F9C42F8D020BA19BA884201D979
:103E5000012010BD4FF0FF3010BD1AB1D30703D0C1
:103E6000521C07E0002010BD10F8013B11F8014B77
:103E70001B1B07D110F8013B11F8014B1B1B01D193
:103E8000921EF1D1184610BD02F0FF0343EA03224F
:103E900042EA024200F0F4B870477047704770473A
:103EA00053EA020C00F069802DE9F04B4FF0000658
:103EB000002B1FBFB3FA83F503FA05F424FA05F6C5
:103EC0005E4012BF1643B2FA82F502FA05F4C5F15C
:103ED00020051EBF22FA05FC44EA0C04203556EAF0
:103EE000044C4FEA144418BF641C4FF000084FF014
:103EF0000009904271EB030C39D3002919BFB1FAC4
:103F000081F701FA07F6B0FA80F700FA07F6C7F171
:103F100020071EBF20FA07FC46EA0C062037B6FB36
:103F2000F4FCA7EB0507103F07F01F0BCBF12006B1
:103F30000CFA0BFB2CFA06F644BFB3460026202FE2
:103F4000A4BF5E464FF0000B5BEA060C08BF4FF0C3
:103F5000010B19EB0B09ABFB027C48EB0608C01BFD
:103F600006FB02CC0BFB03CC71EB0C01C1E70B464B
:103F7000024641464846BDE8F08B13B54FF00000BD
:103F80004FF00001AFF30080BDE81C40704710B552
:103F900000F096F8006810BD10B5044600F090F8E7
:103FA000046010BD2DE9F0470D469946924604463F
:103FB00000F124080168880604D5E06921F01001A9
:103FC000216000E00120A84201DD471B00E000273E
:103FD000A1697A1902EB0900081AA0612078C006CD
:103FE00002D42046FFF7F8FD002608E0D4E90121BD
:103FF0001AF806009047206A401C761C20624E4545
:10400000F4DB2078C0060AD52046FFF7E5FD06E080
:10401000D4E9012130209047206A401C2062381EDC
:10402000A7F10107F4DC07E0D4E9012118F8050045
:104030009047206A401C2062281EA5F10105F3DC90
:104040002046FFF7DFFD2078000602D50220BDE8FC
:10405000F0870120FBE70000074B70B50D467B445D
:1040600000F037F80446284600F046F810B14FF04B
:10407000FF3070BD204670BDCDF0FFFF4FF0000255
:104080000429C0F0128010F0030C00F03B80CCF14A
:10409000040CBCF1020F18BF00F8012BA8BF20F8D8
:1040A000022BA1EB0C0100F02DB85FEAC17C24BF0C
:1040B00000F8012B00F8012B48BF00F8012B7047D6
:1040C000004870474002002001694A1C02610878DC
:1040D000704700B58FB0CDE9013100210591054948
:1040E0007944CDE9031011466846FFF705FE0FB08D
:1040F00000BD0000E5FFFFFF007B00F0800070477F
:104100004FF0000200B5134694469646203922BF70
:10411000A0E80C50A0E80C50B1F12001BFF4F7AFBB
:10412000090728BFA0E80C5048BF0CC05DF804EB9D
:10413000890028BF40F8042B08BF704748BF20F80B
:10414000022B11F0804F18BF00F8012B70470000C0
:1041500000487047400200207546FFF7F9FFAE4661
:1041600005006946534620F00700854618B020B583
:10417000FFF774F8BDE820404FF000064FF000074D
:104180004FF000084FF0000B21F00701AC46ACE8FF
:10419000C009ACE8C009ACE8C009ACE8C0098D466C
:1041A000704710B50446AFF300802046BDE81040CC
:1041B000FBF7EBBF490050EAC12018BF04204A0DAD
:1041C00018BF40F0010040F2FF72B2EB515F08BF30
:1041D00040F00200012808BF052070472DE9F0419A
:1041E0004F1E00EBC7010446D1E9000115461E46EB
:1041F00037F006020DD02A46334600F0DFFD7F1E61
:1042000004EBC703D3E9002300F0B8FB37F0060244
:10421000F1D1022F25D0042F13D0062F18BFBDE8EF
:10422000F0812A46334600F0C9FDD4E90A2300F0A4
:10423000A5FB2A46334600F0C1FDD4E9082300F06F
:104240009DFB2A46334600F0B9FDD4E9062300F071
:1042500095FB2A46334600F0B1FDD4E9042300F073
:104260008DFB2A46334600F0A9FDD4E9022300F075
:1042700085FB2A46334600F0A1FDD4E90023BDE8C2
:10428000F04100F07BBB012201F0A3BB00F076BB44
:10429000002213461046114600F020BC024A0020BE
:1042A000110701F096BB000001FDFFFF30380A281E
:1042B00001D2012070470020704700002DE9F04D29
:1042C0008D4F21F0004A86B005460C46BA452ADBE0
:1042D000AAEB070028430AD08848824501DC1AD19E
:1042E000CDB106B02846BDE8F04DFFF7CCBF844AFB
:1042F000844B284600F062FD07460E46824A834BF7
:104300002846214600F05AFD06B03A463346BDE83D
:10431000F04D00F033BB0120FFF73EFE06B0BDE8D4
:10432000F04DFFF7B5BF7A48824542DABAF1795FBE
:104330000BDA2846FFF73EFF042808BFFFF7AEFF61
:10434000284606B02146BDE8F08D2A460B461046A9
:1043500000F034FD834602466E480E460B460621A9
:104360007844FFF73BFF5A46334600F027FD80466E
:1043700069488A465A46334604217844FFF72EFF9F
:104380005A46334600F01AFD00223B4600F0F6FA8A
:1043900002460B464046514600F0A0FB2A46234603
:1043A00000F00CFD06B02A462346BDE8F04D00F0B3
:1043B000E5BA284624F0004100223D463B4600F085
:1043C000FBFD4FF0FF3201F004FB06460246534866
:1043D0000F460B4606217844FFF700FF32463B4666
:1043E00000F0ECFCCDE900014D4832463B4604218B
:1043F0007844FFF7F3FE32463B4600F0DFFC002234
:104400002B4600F0BBFA834602913046394600F055
:104410005DFA804643480D46504517DCDDE9000152
:104420005A46029B00F05AFB42462B4600F0C6FC5F
:1044300042462B4600F0A2FA012201F0CAFA304AA5
:10444000304B00F0ABFE304A304B4CE04FF0000AEE
:1044500052460B46404600F091FACDE90310524611
:104460002B461046194600F0A9FC32463B4600F0A8
:10447000A3FDDDE9033200F031FB06460F46DDE91E
:1044800000015A46029B00F029FB8346009101225D
:104490003046394601F09DFA194A1A4B00F08CFD5E
:1044A00006460F4601224046294601F092FA5A4636
:1044B000009B00F083FC32463B4600F06FFE064650
:1044C0000F4601225046294601F083FA0E4DDFF8CF
:1044D00058802A46434600F06FFD32463B4600F0C6
:1044E0006BFD2A46434600F067FD002CD8BF81F0E3
:1044F000004106B0BDE8F08D0000F03F0000F07F05
:10450000075C143326A6913C182D4454FB21F93F37
:104510000000E03FCC230000E2230000562300000F
:104520006C2300003333EF3FFB21E93F2DE9F84FC7
:1045300004460D4621F0004000917349814211DC90
:104540007249884201DC06D12CB120462946BDE8DB
:10455000F84FFFF798BE6E48002DCCBF6D496E49ED
:10456000BDE8F88F6D49814211DD6D498142D8BFA8
:104570004FF0FF366DDD20462946FFF71BFE04286D
:1045800008BFFFF78BFE20462946BDE8F88F654936
:10459000654F25F00045814233DD6449814219DDD4
:1045A000002632464FF080432046294600F0E6F9C7
:1045B00080468A4601222046294601F00AFA002256
:1045C0003B4600F0EBFD4246534600F087FA0446B6
:1045D0000D463EE001260022BA463B4620462946CB
:1045E00000F0CCF980460F4600225346204629466B
:1045F00000F0D4FD42463B4600F070FA04460D46FA
:1046000027E04B4981421BDDDFF828A1022600226A
:1046100053462046294600F0D1FB00223B4600F0DD
:10462000ADF980460F46002253462046294600F049
:10463000B5FD42463B4600F051FA04460D4608E0FF
:10464000032622462B4600203B4900F047FA044649
:104650000D4622462B461046194600F0AFFB8B460E
:10466000824602460B4600F0A9FB07460246334845
:1046700088460B4606217844FFF7B0FD52465B465C
:1046800000F09CFB82462E488B463A464346052165
:104690007844FFF7A3FD3A46434600F08FFB0246FD
:1046A0000B46002E504659460CDA00F067F92246B8
:1046B0002B4600F083FB01B022462B46BDE8F04FAD
:1046C00000F07ABC00F05AF922462B4600F076FB47
:1046D0001C4A7A4402EBC603D3E9002300F05EFDD6
:1046E00022462B4600F05AFD174A7A4402EBC603D5
:1046F000D3E9002300F060FC009A002AB8BF81F0E3
:104700000041BDE8F88F0000000010440000F07F79
:10471000182D4454FB21F93FFB21F9BF0000DC3F79
:104720000000203E0000F33F0000F03F0000E63FA5
:10473000008003400000F83F0000F0BF6E21000041
:104740002C210000CA200000922000002DE9F04D2D
:104750009446CCF1000423F000464CEA0404524F86
:1047600046EAD4749A46884621F00042BC4206D8F4
:10477000454240EA050442EAD474BC4204D9BDE88B
:10478000F04D6246FFF782BDAAF14055A5F17F6565
:1047900055EA0C040BD0022404EAAA74434DDFF856
:1047A00010E144EAD87452EA000B04D00CE0BDE8F2
:1047B000F04DFFF7BBBE002C14BF012CBDE8F08DFF
:1047C000022C30D0032C32D056EA0C0B0AD0BE4259
:1047D00020D1BA4209D126F0804622F080423346E9
:1047E000114617E000291ADB25E0DFF8C8B0FB44CA
:1047F000002C04BFDBE90001BDE8F08D012C02BFF5
:10480000DBE9000181F00041BDE8F08D022C0AD007
:10481000032C0CD0BA4212D1B8F1000F0BDA2348A6
:104820002549BDE8F08D28462449BDE8F08D28468D
:104830007146BDE8F08D1D482149BDE8F08D921B01
:1048400012153C2AC4BF19481D490EDCBAF1000FED
:10485000BEBF12F13C0F0020014606DB624600F0AD
:104860003DF921F00041FFF761FE002C08BFBDE8D3
:10487000F08D012C04BF81F00041BDE8F08D114A9C
:10488000114B022C07D000F089FC2A46BDE8F04D00
:104890000A4B00F083BC00F081FC2A46BDE8F04DD5
:1048A000064B00F089BB00000000F07F182D445437
:1048B000FB2109C026200000FB21F9BFFB21094094
:1048C000FB21F93F075C143326A6A13C2DE9F041FA
:1048D00006460F4600F07CFB041E0D4618BF012063
:1048E000284320F00040C0F17F6000F1E040C00F9D
:1048F0000ED0301C18BF0120384320F00040C0F11A
:104900007F6000F1E040C00F04BF0120FFF744FBCF
:1049100020462946BDE8F08121F00042A2F1605214
:10492000B2F5801F01F0004328BFD2F17F6C0BD994
:104930005FEA001C43EAC20242EB507018BF7047A6
:1049400028BF20F001007047B2F5801FBCBF184699
:1049500070474FEA410C1CF5001F02D2084600F0D8
:104960008CBF70B500F0D4FA00000089FFF7F6BFE5
:104970004FF00040A0F580007047000010B591EAAC
:10498000030F48BF83F0004300F11084841A71EBD9
:10499000030C05D2121943EB0C03001B61EB0C0155
:1049A000DFF824E14FEA1154A4EB135C1EEA430F35
:1049B00018BF9EEA445F73D023EA0E03DCF1200E99
:1049C00021EA045143F4801332D322FA0CFE10EB97
:1049D0000E0023FA0CFE41EB0E01CCF1200E03FA7F
:1049E0000EFE10EB0E0051F10001B1F5801FCCF16D
:1049F000200E32D201EB045112FA0EF2BDE8104043
:104A000058BF7047401C38BF5FEA420218BF70476A
:104A1000002814BF20F0010041F100014FEA4103DA
:104A200013F5001F38BF7047A1F1C04100F0BEBAB6
:104A3000012A43EB0302ACF1200CDCF11F0E32BF64
:104A40004FF0000E23FA0CF310EB030041EB04517E
:104A5000B4EB115FD0D0A1EB045101F580114908EE
:104A60005FEA300001EB04510ED350F1000038BF73
:104A700012FA0EFE08D1BDE81040C9E7401C38BF4D
:104A80005FEA4202CAD1C3E7BDE810404FEA4103E2
:104A900013F5001F38BF7047A1F1C04100F086BA7E
:104AA0009EEA445F08D011EA5E0FBDE8104004BFE3
:104AB00001F0004100207047BDE8104070B500F0E3
:104AC00027FA00BF64FBBE3E0000E0FF02494FF042
:104AD000000000F04CBF00BF0000F87F2DE9C0418E
:104AE00030B4DFF8A0C23CEA111418BF3CEA13143A
:104AF00000F0EC8081EA03051CEA111444EAD57445
:104B000018BF1CEA131500F0C780A4EB05044FF092
:104B1000004545EAC12145EAC32341EA505143EA31
:104B2000525304F17F74994204F500344FEAC020D7
:104B30004FEAC22208BF904200F09C804FEA136502
:104B40000FF24016765D4FEA134506FB05F7C7F1F5
:104B5000807706FB07F74FEAD737A7FB0368764253
:104B6000C8F58038A7FB06CE38BFA8F1010807FBBF
:104B700008E64FF0000EA6FB028CE6FB03CEDCF14C
:104B8000000CCEF1004E38BFAEF1010EA6FB0C5862
:104B90004FF000074FF00005E6FB0E87A1FB08C6AB
:104BA000A0FB07CE16EB0E0645F10005E1FB0765FD
:104BB00015F1E04E7EBFA4F580345FEA46066D41F4
:104BC00016F1800745F100054FEA17274FEA066600
:104BD00047EA0567A6F1DE46B6F1805F4FEA152584
:104BE0001FD9384624F0010C05EBC471BCF1FE6FEF
:104BF00001EB0C1102D8F0BCBDE8008124425CBF7F
:104C000001F5801E9EEAC47F02D4F0BCBDE800819D
:104C1000244238D4F0BCA1F1C041BDE8004100F00D
:104C2000C5B94FEAD22242EA43524FEAD323A7FB47
:104C300002864FEAD02040EA415007FB03661EEA95
:104C40000E0F4FEAD12105FB026658BFA6EB0056B6
:104C5000B6EB00564FEA520E4EEAC37E18EB0E0E2C
:104C600056EB530EBDD518EB02085E417F1C55F183
:104C70000005B6E74FF480154FF000074FF000062F
:104C80004FF00008ADE7F0BC4FF0000001F1C0416B
:104C900001F00041BDE8008111EA0C1F0CEA131578
:104CA00000D00CE013EA0C1F00F025804FF000004C
:104CB000F0BC81EA030101F00041BDE80081F0BCD5
:104CC000BDE8004181EA030100F070B9F0BCBDE825
:104CD000004170B500F01CF9097EFC3E00F007B8F9
:104CE00081EA03014FF0000001F00041704781EAC2
:104CF000030100F05BB9F0BCBDE800414FF00000DB
:104D000021497047FFFDFBF9F7F5F4F2F0EEEDEB0A
:104D1000E9E8E6E4E3E1E0DEDDDBDAD8D7D5D4D3B9
:104D2000D1D0CFCDCCCBCAC8C7C6C5C4C2C1C0BF05
:104D3000BEBDBCBBBAB9B8B7B6B5B4B3B2B1B0AF0B
:104D4000AEADACABAAA9A8A8A7A6A5A4A3A3A2A1EF
:104D5000A09F9F9E9D9C9C9B9A99999897979695AA
:104D600095949393929191908F8F8E8E8D8C8C8B46
:104D70008B8A8989888887878685858484838382CE
:104D8000828181800000FF070000F87F10F0004260
:104D900048BF4042B0FA80F310FA03F10AD0C3F1E1
:104DA0001D0303F580634FEA415002EB035202EB0F
:104DB000D12170474FF0000070470000DFF848C174
:104DC00070B51CEA111E1EBF1CEA13159EEA0C0FDB
:104DD00095EA0C0F00F06F8081EA030423EA4C137C
:104DE0004EEAD47E21EA4C1141F4801143F4801341
:104DF000AE44A1FB024CA0FB0365AEF17F7E3619E9
:104E000055EB0C05A1FB034C4CF10003A0FB021C6D
:104E100016EB0C06654153F10003094218BF46F03A
:104E2000010613F4007F0BD14FEA03314FEA05303E
:104E3000340341EA155140EA16506FF003020AE0CC
:104E40004FEAC3214FEAC520F40241EA555140EA36
:104E500056506FF0020202EB2E4201EB025585EA3A
:104E6000CE710AD05FEA440C18BF24F0004450F120
:104E7000000041F1000120EAD47040F2FE7C62455E
:104E800000D270BDA84214BF4FF080444FF04044A0
:104E9000002E08BF0024BEF1806FA8BFA1F1C04161
:104EA000BDE8704080F282804FF0000001F1C04107
:104EB00001F0004170479EEA0C0F0CEA131518BF71
:104EC00095EA0C0F06D04FF0000081EA030E0EF0B9
:104ED000004170BD00F01CF88900013E00F007B8E9
:104EE00000F009B84FEA430C5FEA5C5C08D081EA45
:104EF000030100F05BB84FEA410C5FEA5C5CF6D15D
:104F00004FF00000014970470000FF070000F87FE4
:104F10000EF1020E2EF0030E5EF8046B364205D43D
:104F2000012A43EB030515F5001F12D8012841EBB8
:104F3000010C1CF5001F0CD80ED14FEAD17C15F5E1
:104F4000001F0CEB4C0C0CF1020C08BF4CEBD37C9B
:104F500004E04FF0080C01E04FEAD37C0CEB4C0569
:104F600026FA05F606F00706B6F1040C06D20EEB9B
:104F7000860CBDE870404CF0010C6047DFE80CF097
:104F8000090B02024FF000414FF00000A1F5002193
:104F900070BD19461046012851EB010418BFD4F525
:104FA000001484BF002001F0004170BD0808A0F586
:104FB00000114FEA3101704791EA030F10B581F0FB
:104FC00000413FF5E3AC83F0004300F0EFB8000090
:104FD0002DE9F04101F5801CBCF5001FC0F2C38033
:104FE0004FEA115C21EA0C510CF1FD0C41F48011E7
:104FF0005FEA5C0C0CF5C07C01D3400049413DA444
:10500000890241EA905187028E0E0A0CA45D04FBCE
:1050100004F602FB06F6C6F14046A4FB0662F60D56
:1050200046EA422606FB06F4A4FB01235242C3F1E2
:10503000404338BF5B1EA6FB02420024E6FB03246C
:10504000D20B42EA4446A6FB0623A1FB02E2A3FBE5
:1050500007E4A4184FF0000252F10002E3FB014202
:105060006442C2F1404E38BFAEF1010EA6FB0423EC
:105070004FF00002E6FB0E32A2FB03464FF00004A5
:10508000B61954F10004E2FB0264A1FB06E6A4FB9E
:1050900007E816EB08064FF0000858F10008E4FB9B
:1050A00001687642C8F1405838BFA8F10108A2FB58
:1050B00006E4A3FB08E52D194FF0000454F10004A9
:1050C000E2FB0854A1FB05E6A7FB04E818EB060881
:1050D0004FF0000656F10006E1FB048618F12005AA
:1050E00056F10006A809A8F11B08B10908F03F080D
:1050F000B8F10A0F40EA86601CD901EB0C51BDE8FB
:10510000F08100BFFCF5EEE8E2DDD8D3CFCBC7C31A
:10511000C0BDB9B6B4B1AEACA9A7A5A3A19F9D9BD4
:105120009A9896959392908F8D8C8B898887868597
:1051300084838281A0FB006800FB01F208EB420837
:10514000B8EB872807D5341858EB0104D5D5401C97
:1051500051F10001D1E7341A78EB0104CDD4401E9F
:1051600071F10001C9E75FEA4C0C5FEA9C5C0DD16C
:1051700005D34FF0000001F00041BDE8F081BDE82B
:10518000F04170B5FFF7C4FE6DDBFFBEBDE8F04136
:105190004FF00000004970470000F87F10B591EA19
:1051A000030F48BF83F000433FF5F0AB841A71EB67
:1051B000030C07D212198CF0004C43EB0C03001BBC
:1051C00061EB0C01DFF8A4E14FEA1154A4EB135C8E
:1051D0001EEA430F18BF9EEA445F00F0B08023EA46
:1051E0006E03524221EA0451C3EB6E0338BF5B1ECB
:1051F000DCF1200E25D322FA0CFE10EB0E0043FA50
:105200000CFE41EB0E01CCF1200E03FA0EFE10EB6A
:105210000E0051F10001CCF1200E29D412FA0EF249
:1052200001EB0451BDE8104058BF7047401C1CBF43
:10523000B2F1004F704700280CBF491C20F001005C
:10524000704712EB020E43EB030218BF4FF0010E42
:105250004EEA4202ACF1200CDCF11E0E54D943FAA6
:105260000CFE10EB0E0051F1FF31CCF11E0ED5D526
:105270000EF1010E12FA0EFE404141EB010101EB6D
:10528000445C5FEA5C5C10D910EBDE7001EB04510A
:1052900038BFBEF1004FBDE8104018BF704700286E
:1052A0000CBF491C20F00100704730D24FEAD42CCB
:1052B00011F5001124F400641BD0B1FA81F20B3A0D
:1052C000A41AA41ED2F12003914030FA03F319432B
:1052D000904001EBCC71002C01EB0451BDE8104073
:1052E000A8BF704701F1C0414FF0000001F000413C
:1052F0007047B0FA80F310FA03F100D110BDE41A40
:10530000173C4805C90AE4E701EB045110BD4910F8
:1053100001EB0451BDE810404FEA300002E04FF0CD
:10532000000170474A0008BF0042F8D0B2F5001FE4
:1053300028BF704701F000414FF0000070479EEA1F
:10534000445F07D011EA5E0FBDE8104004BF0021A2
:1053500000207047BDE8104070B5FFF7D9FD00BFD1
:1053600040DFF63E83F00041104670470000E0FF4A
:1053700043004FEAD30C4FEA3C0C43401FBF4007A9
:105380000CF1605113F0FE4F70471CF0006F03D119
:1053900000200CF0004170470CF0004343EA5070CD
:1053A00010B540EACC0000F022FA00BF00000092E5
:1053B0004FEA0001FFF7FABD4FF000414FF0000047
:1053C000A1F500217047000090EA010F48BF81F06D
:1053D000004100F15E82421A3CBF801A89184FEAF0
:1053E000D0524FF07F4C1CEA410FA2EBD15318BFB3
:1053F0009CEA026F00F03B804FF0004C4CEA00202A
:105400004CEA012121FA03FC10EB0C0C1ED202F134
:10541000FF325FEA1C2040EBC25038BF70471CF0DF
:105420007F0F4FEA400C18BFBCF17F4F38BF704769
:10543000C3F12003994008BF20F00100BCF17F4F69
:1054400038BF7047A0F1C04000F017BA4FEA3C00E7
:10545000000A40EBC25028BF1CF0FF0F4FEA400C7F
:10546000E6D018BFBCF17F4F38BF7047EAE79CEA2F
:10547000026F05D010EA5C0F08BF00F000407047D3
:1054800010B500F0B4F900BF64FBBE3E014800F067
:105490006EBA00BF0000C07F4FF47F0C1CEAD01230
:1054A0001EBF1CEAD11392EA0C0F93EA0C0F00F016
:1054B000858090EA010F48BF42F4807240F4000CEE
:1054C00041F400002CF07F4120F07F4000B5814284
:1054D000A2EB03020FF2081CACEB504EC0F100002F
:1054E0009EF800E04FEA4E0E00FB0EFC38BF49006C
:1054F0004FEA2C1C02F5FA020CFB0EF34FEACE1E0B
:105500004FEA112C4FEAC1210EEB635E42EB2242BF
:105510000EFB0CFC4FEA1C5300FB03114FEA112C4D
:105520004FEA01310EFB0CFC4FEADC4C00FB0C1186
:10553000C14228BF09184CEB03335DF804EB10EBB4
:10554000410143EBC250B2F57C0F38BF704729D5FB
:1055500012F0F00F1CBF00F1C04000F00040704797
:10556000008182838485868788898B8C8D8E8F913C
:105570009293959697999A9C9D9FA0A2A3A5A7A860
:10558000AAACAEB0B2B3B5B7B9BCBEC0C2C5C7C98C
:10559000CCCED1D4D7D9DCDFE2E6E9ECF0F3F7FAF0
:1055A000FE0000004FEA400C0CF1807CBCF17E4F05
:1055B00028BF7047B0F1C04000F05FB990EA010F1A
:1055C0000CEAD11348BF42F48072624538BF63458C
:1055D00007D213F47F0F16D080EA010000F00040DC
:1055E000704710B500F003F9097EFC3E00F005B8E5
:1055F00080EA010000F00040704780EA010000F0FE
:10560000004000F03AB912F47F0F04BF024870471F
:1056100080EA010000F031B90000C07F41000B0EAC
:10562000D3F19E0208D950F400034FEA032323FA72
:1056300002F048BF4042704710B500F0D8F800BFF4
:1056400049922480002070476FF0004282EA2000D7
:1056500070470000C10DD1F19E0206DB4FEA002326
:1056600043F0004323FA02F07047004207D54FEAA7
:105670004001B1F1FE4F02D24FF00000704710B56B
:1056800000F0B5F849922480002070476FEA2000AE
:105690007047000010F0004148BF4042B0FA80F36C
:1056A00010FA03F2C3F19D030BD051EAC35101EB91
:1056B0001220530638BF704700F1010008BF20F0E8
:1056C00001007047B0FA80F310FA03F2C3F19D03B2
:1056D0000AD0D90501EB1220530638BF704700F1FC
:1056E000010008BF20F00100704700004FF47F0C5C
:1056F0001CEAD0121EBF1CEAD11392EA0C0F93EAE7
:105700000C0F00F0478090EA010F48BF42F480720E
:105710004FF0004C4CEA00204CEA012102EB03025E
:10572000A0FB0113A2F50002002918BF43F00103FA
:105730005B0028BF4FEA330342EB22425FEA132C9F
:105740004CEBC2502EBFBCEB436FB2F57C0F7047E1
:105750004FEA036CBCF1004F08BF20F00100B2F526
:105760007C0F38BF70470BD582F0FF0212F5803FE7
:10577000C8BF704700F1C040D8BF00F0004070477C
:1057800000F5000C5FEA4C0C48BF7047B0F1C04018
:1057900000F073B890EA010F0CEAD11348BF42F44D
:1057A0008072624538BF634504D280EA010000F090
:1057B0000040704710B500F01AF800BF8900013EA4
:1057C00000F007B800F009B85FEA410C5FEA1C6C12
:1057D00008D080EA010000F050B85FEA400C5FEAB0
:1057E0001C6CF6D14FF00040A0F5800070470EF120
:1057F000020E2EF0030E5EF8044B244204D44FEA4E
:105800004102B2F17F4F11D84FEA4003B3F17F4F0D
:105810000CD80ED14FEAD07CB2F17F4F0CEB4C0C80
:105820000CF1020C08BF4CEBD17C04E04FF0080CEB
:1058300001E04FEAD17C0CEB4C0324FA03F404F0B2
:105840000704B4F1040C06D20EEB840CBDE8104042
:105850004CF0010C6047DFE80CF0070802024FF043
:105860000040A0F5800010BD0846420018BFD2F1EC
:10587000807288BF00F0004010BDFF2141EAD05087
:10588000C005704790EA010F48BF81F000413FF525
:10589000A2AD421A04D882F00042A0EB02001144EB
:1058A0004FEAD0524FF07F4C1CEA410FA2EBD1538C
:1058B00018BF9CEA026F4AD04FF0004C4CEA00201F
:1058C0004CEA012121FA03FCB0EB0C0C0FD412F0CE
:1058D000FE0F36D05FEA4C001DD5001240EBC250DF
:1058E00038BF70471CF03F0F18BF70470BE0A2F1A4
:1058F00001025FEA1C2040EBC25038BF70471CF029
:105900007F0F18BF7047C3F12003994014BF401E9A
:1059100020F00100704780084FEA122308BF70474B
:10592000B0FA80FCA2EB0C02CCF1280C60FA0CF06F
:1059300093EA122F04BF00EBC25070474FEAC370C6
:105940007047130A5FEADC1008BF7047F6E79CEA6D
:10595000026F04D010EA5C0F08BF0020704710B53A
:10596000FFF745FF40DFF63E81F0004070470CF046
:105970000F03092B08BF082000F07F800A2B0BD0F3
:10598000082B18BF704708BF1CF0400F0AD04FF01B
:1059900000004FF0000170471CF0400F18BF4FF09F
:1059A000004070471CF0100F08D020F0704300F04A
:1059B0007F4242EAD3014FEA4370704700F06040F3
:1059C00021F07F4242EA000201F07F4040EA72701B
:1059D00070474FF0FF0C4CF4E06C1CEA11531CBFF5
:1059E0009CEA030C9445C2BFDA4201EB02517047B6
:1059F000002B0DD0BCF1000F0FD0002A01F00041A8
:105A0000A4BF41F0E04141F07F614FF000007047DA
:105A100001F000414FF00000704750EA01334FF0B1
:105A20009B0C18BF4CF0806C7FF450A870474FF06F
:105A3000FF0212EAD0521CBF92F0FF038B42C2BF9A
:105A4000D14200EBC1507047002A0AD0002B0BD086
:105A5000002900F00040A4BF40F0FE4040F40000E8
:105A6000704700F00040704743024FF00B0C18BF26
:105A70004CF0806C7FF40AAD70471CF4801F11D08D
:105A80001CF4E02F03D06FEACC31490070474FF08F
:105A90004050EFF3008222F0704242EA000282F3AB
:105AA000008870474FF00000704700007000000051
:105AB0000024000000020003000000650054FFEF16
:105AC0000000FA80000B12820001030C30C30E8C20
:105AD0008CE914D5400213710F8E3883F88330009F
